:100000000C942A000C943F000C943F000C943F0089
:100010000C943F000C943F000C943F000C943F0064
:100020000C943F000C943F000C943F000C943F0054
:100030000C943F000C943F000C943F000C943F0044
:100040000C943F000C943F000C943F000C943F0034
:100050000C943F0011241FBECFE5D8E0DEBFCDBF1A
:1000600010E0A0E6B0E0E4E0FFE002C005900D92F1
:10007000AC3AB107D9F70E9491010C9480070C9417
:1000800000009C0183E083BF80EF08C082BF98B767
:10009000916098BFA89508B600FEFDCF21503109A8
:1000A000A8F713BE089514BA15BA95B36C5F7F4FC5
:1000B00021E030E0A901062E02C0440F551F0A942A
:1000C000E2F7492B45BB94B302C0220F331F8A9538
:1000D000E2F7922B94BB85B32095282325BB23B34D
:1000E00030E002C0359527956A95E2F781E090E00F
:1000F00020FF02C080E090E00895AF92BF92CF92BF
:10010000DF92EF92FF920F931F93CF93DF93C0E0A4
:10011000D0E063E070E0CE010E945300892B21F013
:10012000CE018F5B9F4F4DC02196C430D10589F71A
:10013000A12CB12C1EC00E2D1F2DBE018E2D9F2D6A
:100140000E945300892B51F0C801880F991F080F96
:10015000191F0C0F1D1FC801C19633C02196C33053
:10016000D10549F78FEFA81AB80A83E0A816B104A1
:1001700029F0C0E0D0E0EA2CFB2CDDCF61E070E09C
:1001800083E090E00E945300892B99F460E070E0D6
:1001900083E090E00E945300892B71F462E070E0EC
:1001A00083E090E00E945300892B49F48AE590E0B7
:1001B00008C080E390E005C08AE290E002C083E2DC
:1001C00090E0DF91CF911F910F91FF90EF90DF9022
:1001D000CF90BF90AF900895662311F0C09A01C0F0
:1001E000C098C19882BB8FEF81BBC29A000000000B
:1001F0000000C2980895C098C19A11BA90B3C29AEB
:1002000000000000000011BA90B3C29899239CF33B
:100210000E94EC000895B89AB99ABA9A80E190E0E9
:100220000E94410060E080E30E94EC0085E090E0E5
:100230000E94410060E080E30E94EC0081E090E0D9
:100240000E94410060E08CE30E94FB0060E08CE0D3
:100250000E94FB0060E086E00E94FB0060E081E01D
:100260000E94FB000895CF93C62F98E2899FC00D8E
:10027000112460E082E00E94FB00CC2331F060E0BA
:1002800084E10E94FB00C150D1F7CF910895CF9334
:10029000DF93EC012196FC018081882331F061E03D
:1002A0000E94FB0089918111FACFDF91CF910895CF
:1002B000CF93DF93CDB7DEB761970FB6F894DEBF6B
:1002C0000FBECDBF8EE0E0E6F0E0DE0111960190BA
:1002D0000D928A95E1F760E070E080E090E00E9486
:1002E0003301CE0101960E9447018EE0EEE6F0E078
:1002F000DE01119601900D928A95E1F760E070E0C1
:1003000081E090E00E943301CE0101960E944701F6
:1003100061960FB6F894DEBF0FBECDBFDF91CF91CF
:100320000895CF93DF93CDB7DEB72C970FB6F8942F
:10033000DEBF0FBECDBF0E940B013E9A0F2EF7EE1F
:10034000CF2EF3E0DF2EF02D1A8619861C861B8631
:1003500018861F82DA82C9821C821B820E94580181
:100360000E947D00C19781F7CE0101960E94E701AE
:10037000E980FA800B811C812D813E814F81588557
:1003800069857A858B859C850E94100284EF91E0B7
:100390000E9441000E947D00C29731F7D5CF80ECCA
:1003A00086B964B175B180E090E00E94780324E1E1
:1003B0003EEA43E251E40E94D70220E030E040EA06
:1003C00050E40E9406040E944903CB010895CF9394
:1003D000DF93EC010E94CF019C019D838C83888573
:1003E0009985820F931F998788876A857B856F5FC0
:1003F0007F4F7B876A870E9473047F836E838A8125
:100400009B818217930710F43B832A83888199810B
:100410002817390710F439832883DF91CF91089585
:10042000AF92BF92DF92EF92FF920F931F93CF9301
:10043000DF93CDB7DEB76D970FB6F894DEBF0FBE72
:10044000CDBFEA8AFB8A0C8B1D8B2E8B3F8B488F8E
:10045000598FEA88FB880C891D894E895F89E88D50
:10046000F98D5F01B694A794B694A7949501ABE774
:10047000B4E10E948704969587950F2EF4E6DF2E4F
:10048000F02DD89E9001D99E300D1124E21BF30B64
:10049000FF93EF9395010E948704969587959F930C
:1004A0008F93FA01F695E795F695E7959F010E94DF
:1004B000870496958795D89E9001D99E300D11247A
:1004C000421B530B5F934F939F010E9487049695A5
:1004D00087959F938F938CE790E09F938F93CE01A6
:1004E00001965C019F938F930E94960460E080E0E8
:1004F0000E943301C5010E944701A7015695479507
:10050000569547959A01ABE7B4E10E94870496950A
:100510008795D89E9001D99E300D1124E21AF30AD6
:10052000FF92EF929A010E948704969587959F9378
:100530008F93A80156954795569547959A010E9425
:10054000870496958795D89E9001D99E300D1124E9
:10055000021B130B1F930F939A010E948704969519
:1005600087959F938F9384E990E09F938F93BF9299
:10057000AF920E94960460E081E00E943301C501C1
:100580000E9447010FB6F894DEBF0FBECDBF6D9637
:100590000FB6F894DEBF0FBECDBFDF91CF911F9194
:1005A0000F91FF90EF90DF90BF90AF9008950E9461
:1005B000EB020C94CC030E94C50358F00E94BE03CA
:1005C00040F029F45F3F29F00C94B50351110C94CD
:1005D00000040C94BB030E94DD0368F39923B1F37C
:1005E000552391F3951B550BBB27AA276217730759
:1005F000840738F09F5F5F4F220F331F441FAA1FED
:10060000A9F335D00E2E3AF0E0E832D091505040A8
:10061000E695001CCAF72BD0FE2F29D0660F771F56
:10062000881FBB1F261737074807AB07B0E809F03C
:10063000BB0B802DBF01FF2793585F4F3AF09E3FC1
:10064000510578F00C94B5030C9400045F3FE4F37B
:10065000983ED4F3869577956795B795F7959F5F04
:10066000C9F7880F911D9695879597F90895E1E050
:10067000660F771F881FBB1F621773078407BA07AF
:1006800020F0621B730B840BBA0BEE1F88F7E0950A
:1006900008950E94E50388F09F5798F0B92F992795
:1006A000B751B0F0E1F0660F771F881F991F1AF05D
:1006B000BA95C9F714C0B13091F00E94FF03B1E0C0
:1006C00008950C94FF03672F782F8827B85F39F0BF
:1006D000B93FCCF3869577956795B395D9F73EF4F6
:1006E00090958095709561957F4F8F4F9F4F08959E
:1006F000E89409C097FB3EF49095809570956195BC
:100700007F4F8F4F9F4F9923A9F0F92F96E9BB2771
:100710009395F695879577956795B795F111F8CFED
:10072000FAF4BB0F11F460FF1BC06F5F7F4F8F4F58
:100730009F4F16C0882311F096E911C0772321F04E
:100740009EE8872F762F05C0662371F096E8862FE6
:1007500070E060E02AF09A95660F771F881FDAF73D
:10076000880F9695879597F9089597F99F6780E880
:1007700070E060E008959FEF80EC089500240A94F3
:100780001616170618060906089500240A9412166C
:100790001306140605060895092E0394000C11F49F
:1007A000882352F0BB0F40F4BF2B11F460FF04C04C
:1007B0006F5F7F4F8F4F9F4F089557FD9058440FA5
:1007C000551F59F05F3F71F04795880F97FB991FB0
:1007D00061F09F3F79F0879508951216130614066D
:1007E000551FF2CF4695F1DF08C0161617061806FA
:1007F000991FF1CF86957105610508940895E894D5
:10080000BB2766277727CB0197F908950E94190423
:100810000C94CC030E94BE0338F00E94C50320F064
:10082000952311F00C94B5030C94BB0311240C9484
:1008300000040E94DD0370F3959FC1F3950F50E013
:10084000551F629FF001729FBB27F00DB11D639F82
:10085000AA27F00DB11DAA1F649F6627B00DA11D28
:10086000661F829F2227B00DA11D621F739FB00DCE
:10087000A11D621F839FA00D611D221F749F33273E
:10088000A00D611D231F849F600D211D822F762FD7
:100890006A2F11249F5750409AF0F1F088234AF0B4
:1008A000EE0FFF1FBB1F661F771F881F9150504020
:1008B000A9F79E3F510580F00C94B5030C940004F9
:1008C0005F3FE4F3983ED4F3869577956795B795A7
:1008D000F795E7959F5FC1F7FE2B880F911D9695C1
:1008E000879597F90895AA1BBB1B51E107C0AA1F62
:1008F000BB1FA617B70710F0A61BB70B881F991FC1
:100900005A95A9F780959095BC01CD010895A29FB5
:10091000B001B39FC001A39F700D811D1124911DD3
:10092000B29F700D811D1124911D0895AEE0B0E0BD
:10093000ECE9F4E00C9457070D891E8986E08C835E
:100940001A8309838FEF9FE79E838D83AE01475EF5
:100950005F4F6F89788DCE0101960E94B804EF81B8
:10096000F885E00FF11F10822E96E4E00C947307D7
:10097000ABE0B0E0EEEBF4E00C9449076C017B01D6
:100980008A01FC0117821682838181FFCCC1CE01CE
:1009900001963C01F6019381F70193FD859193FF48
:1009A00081917F01882309F4BAC1853239F493FD1E
:1009B000859193FF81917F01853229F4B60190E002
:1009C0000E94AF06E7CF912C212C312CFFE1F315CB
:1009D000D8F08B3279F038F4803279F08332A1F498
:1009E000232D20611DC08D3261F0803369F4232DE9
:1009F000216016C0832D8260382EE32DE4603E2EE8
:100A00002AC0F32DF8601DC037FC2DC020ED280F43
:100A10002A3040F08E32B9F436FC81C1232D206497
:100A2000322E19C036FE06C08AE0989E200D112491
:100A3000922E11C0EAE02E9E200D1124222EF32DBD
:100A4000F0623F2E08C08C3621F4832D8068382E4A
:100A500002C0883641F4F70193FD859193FF81919F
:100A60007F018111B3CF982F9F7D9554933028F447
:100A70000C5F1F4F9FE399830DC0833631F083379E
:100A800071F0833509F059C021C0F8018081898354
:100A90000E5F1F4F88248394912C530113C02801AB
:100AA000F2E04F0E511CF801A080B18036FE03C069
:100AB000692D70E002C06FEF7FEFC5010E94A406B0
:100AC0004C018201F32DFF773F2E16C0280122E052
:100AD000420E511CF801A080B18036FE03C0692D82
:100AE00070E002C06FEF7FEFC5010E9499064C01D4
:100AF000F32DF0683F2E820133FC1BC0822D90E065
:100B000088169906B0F4B60180E290E00E94AF0624
:100B10002A94F4CFF50137FC859137FE81915F016E
:100B2000B60190E00E94AF0621102A9421E0821ABB
:100B300091088114910471F7E8C0843611F0893668
:100B400041F5F80137FE07C0608171818281938190
:100B50000C5F1F4F08C060817181072E000C880B4D
:100B6000990B0E5F1F4FF32DFF763F2E97FF09C0A5
:100B700090958095709561957F4F8F4F9F4FF0684E
:100B80003F2E2AE030E0A3010E94EB06882E861853
:100B900045C0853731F4232D2F7EB22E2AE030E078
:100BA00025C0932D997FB92E8F36C1F018F4883562
:100BB00079F0B5C0803719F0883721F0B0C0E92F3F
:100BC000E061BE2EB4FE0DC0FB2DF460BF2E09C047
:100BD00034FE0AC0292F2660B22E06C028E030E07D
:100BE00005C020E130E002C020E132E0F801B7FEAC
:100BF00007C060817181828193810C5F1F4F06C0A5
:100C00006081718180E090E00E5F1F4FA3010E9420
:100C1000EB06882E8618FB2DFF773F2E36FE0DC083
:100C2000232D2E7FA22E891458F434FE0BC032FCE3
:100C300009C0832D8E7EA82E05C0B82CA32C03C01E
:100C4000B82C01C0B92CA4FE0FC0FE01E80DF11DA7
:100C50008081803321F49A2D997EA92E09C0A2FEAD
:100C600006C0B394B39404C08A2D867809F0B39477
:100C7000A3FC11C0A0FE06C0B21488F4280C922C6C
:100C80009B180EC0B21460F4B60180E290E00E949E
:100C9000AF06B394F7CFB21418F42B1802C0982CF7
:100CA000212CA4FE10C0B60180E390E00E94AF06A4
:100CB000A2FE17C0A1FC03C088E790E002C088E54F
:100CC00090E0B6010CC08A2D867859F0A1FE02C0D2
:100CD0008BE201C080E2A7FC8DE2B60190E00E94A9
:100CE000AF06891438F4B60180E390E00E94AF06A5
:100CF0009A94F7CF8A94F301E80DF11D8081B60133
:100D000090E00E94AF068110F5CF222009F442CE78
:100D1000B60180E290E00E94AF062A94F6CFF60179
:100D20008681978102C08FEF9FEF2B96E2E10C94B2
:100D30006507FC010590615070400110D8F780955F
:100D400090958E0F9F1F0895FC0161507040019097
:100D50000110D8F7809590958E0F9F1F08950F93DF
:100D60001F93CF93DF93FB01238121FD03C08FEFFE
:100D70009FEF2CC022FF16C0468157812481358108
:100D80004217530744F4A081B1819D012F5F3F4F6B
:100D9000318320838C93268137812F5F3F4F3783A8
:100DA000268314C08B01EC01FB010084F185E02D4A
:100DB0000995892BE1F6D80116968D919C9117978C
:100DC000019617969C938E931697CE01DF91CF9143
:100DD0001F910F910895FA01AA27283051F120316F
:100DE00081F1E8946F936E7F6E5F7F4F8F4F9F4FBF
:100DF000AF4FB1E03ED0B4E03CD0670F781F891F01
:100E00009A1FA11D680F791F8A1F911DA11D6A0FCE
:100E1000711D811D911DA11D20D009F468943F9181
:100E20002AE0269F11243019305D3193DEF6CF0180
:100E30000895462F4770405D4193B3E00FD0C9F746
:100E4000F6CF462F4F70405D4A3318F0495D31FDB3
:100E50004052419302D0A9F7EACFB4E0A695979506
:100E6000879577956795BA95C9F7009761057105DC
:100E700008959B01AC010A2E069457954795379526
:100E80002795BA95C9F7620F731F841F951FA01D80
:100E900008952F923F924F925F926F927F928F921E
:100EA0009F92AF92BF92CF92DF92EF92FF920F93F9
:100EB0001F93CF93DF93CDB7DEB7CA1BDB0B0FB603
:100EC000F894DEBF0FBECDBF09942A8839884888C0
:100ED0005F846E847D848C849B84AA84B984C88456
:100EE000DF80EE80FD800C811B81AA81B981CE0F4D
:100EF000D11D0FB6F894DEBF0FBECDBFED01089532
:040F0000F894FFCF93
:100F0400433A2D2D2D2D20413A2D2D2D2D004D3AD6
:100F14002D2D2D2D206D3A2D2D2D2D00433A2530CC
:100F240031642E2530326420413A253031642E2537
:100F3400303264004D3A253031642E25303264203D
:0C0F44006D3A253031642E2530326400F7
:00000001FF
