S00D000070726F6A332E7372656329
S11300000C942A000C943F000C943F000C943F0085
S11300100C943F000C943F000C943F000C943F0060
S11300200C943F000C943F000C943F000C943F0050
S11300300C943F000C943F000C943F000C943F0040
S11300400C943F000C943F000C943F000C943F0030
S11300500C943F0011241FBECFE5D8E0DEBFCDBF16
S113006010E0A0E6B0E0E2E1F2E002C005900D92FB
S1130070AC3AB107D9F70E9400010C9407010C9423
S113008000009C0183E083BF8FEF08C082BF98B754
S1130090916098BFA89508B600FEFDCF21503109A4
S11300A0A8F713BE0895662311F0C09A01C0C09842
S11300B0C19882BB8FEF81BBC29A00000000000090
S11300C0C2980895C098C19A11BA90B3C29A000018
S11300D00000000011BA90B3C29899239CF30E94C7
S11300E053000895B89AB99ABA9A80E190E00E94B0
S11300F0410060E080E30E94530085E090E00E94AC
S1130100410060E080E30E94530081E090E00E949F
S1130110410060E08CE30E94620060E08CE00E9499
S1130120620060E086E00E94620060E081E00E947C
S113013062000895D09AD8980895EF92FF920F9391
S11301401F93CF93DF931616170684F47B018C015B
S1130150C0E0D0E0D89AC8010E944100D898C801F4
S11301600E9441002196EC16FD06A1F7DF91CF9184
S11301701F910F91FF90EF900895EF92FF920F93CC
S11301801F93CF93DF93161617068CF47B01C82FA9
S1130190D92F00E010E06A817B81888199810E94D7
S11301A09D000F5F1F4F2496E016F106A1F7DF9123
S11301B0CF911F910F91FF90EF900895CF93DF930C
S11301C0CDB7DEB728970FB6F894DEBF0FBECDBF0C
S11301D088E0E4EAF0E0DE01119601900D928A9540
S11301E0E1F762E070E0CE0101960E94BD0028961E
S11301F00FB6F894DEBF0FBECDBFDF91CF91089547
S11302000E9472000E949A000E94DE00FDCFF894C2
S1050210FFCF1A
S11302126500ED017100B8017F0010036500ED0176
S11302227100B8017F0010037F00C4007F00C40086
S11302327F00C4007F00C4007100DC007100DC0098
S11302427100DC007100DC006500ED017100B80191
S10F02527F001003B8017100D2016B00A2
S9030000FC
