S00D000050726F6A352E7372656347
S11300000C942A000C9447000C9447000C9447006D
S11300100C9447000C9447000C9447000C94470040
S11300200C9447000C9447000C9447000C94470030
S11300300C9447000C9447000C9447000C94470020
S11300400C9447000C9447000C9447000C94470010
S11300500C94470011241FBECFE5D8E0DEBFCDBF0E
S113006012E0A0E6B0E0E0E5F6E102C005900D92F2
S1130070AE36B107D9F723E0AEE6B2E001C01D9277
S1130080AE37B207E1F70E9483040C94260B0C945C
S113009000009C0182E083BF83EF08C082BF98B751
S11300A0916098BFA89508B600FEFDCF2150310994
S11300B0A8F713BE08959C0183E083BF83E808C0BA
S11300C082BF98B7916098BFA89508B600FEFDCF8F
S11300D021503109A8F713BE08950F931F93CF93AE
S11300E0DF93CDB7DEB761970FB6F894DEBF0FBECE
S11300F0CDBF1F928F938BED91E09F938F938E01D1
S11301000F5F1F4F1F930F930E943C0860E081E034
S11301100E945303C8010E94670382E390E00E9497
S11301205B000F900F900F900F900F900F906196BF
S11301300FB6F894DEBF0FBECDBFDF91CF911F91F4
S11301400F9108950E9498028093A402813351F480
S11301502AE939E949E95EE361E070E086E091E08B
S11301600E9485058091A402823351F42AE939E979
S113017049E95EE361E070E086E291E00E94850572
S11301808091A402833351F42AE939E949E95EE311
S113019061E070E08AE491E00E9485058091A40208
S11301A0843351F42AE939E949E95EE361E070E016
S11301B08DE591E00E9485058091A402853351F478
S11301C02AE939E949E95EE361E070E088E891E011
S11301D00E9485058091A402863351F42AE939E905
S11301E049E95EE361E070E088EB91E00E948505F7
S11301F08091A402873351F42AE939E949E95EE39D
S113020061E070E08EEE91E00E9485058091A40289
S1130210883351F42AE939E949E95EE361E070E0A1
S11302208BE092E00E9485058091A4028A3511F04A
S11302300E946D008091A40290E00895EF92FF92D5
S11302400F931F93CF937C018B0185E090E00E9474
S11302505B000E94A200C82F0E944E03809170028E
S1130260909171029801281B390BC9019F932F9318
S113027083EC91E09F938F938DE693E09F938F930C
S11302800E943C0860E080E00E9453038DE693E006
S11302900E9467030F900F900F900F900F900F9094
S11302A0CA3529F18FEC8C0F883088F48091700264
S11302B090917102F701E80FF91FC08380917002D9
S11302C09091710201969093710280937002CA32E8
S11302D071F4809170029091710290936F028093F7
S11302E06E02109271021092700281E012C080912D
S11302F07002909171020817190751F410936F025C
S113030000936E02109271021092700281E001C09B
S113031080E0CF911F910F91FF90EF900895DF92AD
S1130320EF92FF920F931F93CF93DF937C01EB0126
S11303308A0185E090E00E945B000E94A200209167
S11303407002309171022C173D070CF07AC0D82E40
S11303500E944E03E0917002F0917102EE0DFF1DB8
S113036080811F928F9384ED91E09F938F930DE68C
S113037013E01F930F930E943C0860E080E00E940A
S11303805303C8010E946703DF93CF9380917002E7
S113039090917102C81BD90BDF93CF938EED91E03E
S11303A09F938F931F930F930E943C086BE081E00F
S11303B00E945303C8010E946703809170029091C8
S11303C07102F701E80FF91F8DB79EB70E960FB6AD
S11303D0F8949EBF0FBE8DBF8081D8121EC0DA9ADA
S11303E089E0E8EEF1E0D80101900D928A95E1F7F9
S11303F060E081E00E945303C8010E94670382E326
S113040090E00E945B0080917002909171020196CD
S1130410909371028093700209C09AE5D91609F489
S113042052C0D99A82E390E00E945B00D998DA988E
S11304308AE2D81244C0109271021092700281E0D4
S113044045C02C173D07E9F5DA9A0E944E031F9325
S11304500F9381EF91E09F938F938DE693E09F93A9
S11304608F930E943C0860E080E00E9453038DE675
S113047093E00E94670382E390E00E945B00109285
S11304807102109270020F900F900F900F900F90C6
S11304900F900130110539F46DEC7CEC8CEC9DE38C
S11304A00E942D0609C00230110531F46DEC7CEC7C
S11304B08CEC9DE30E945306DA9881E007C080E04B
S11304C005C080E003C0D998DA9880E0DF91CF912D
S11304D01F910F91FF90EF90DF90089514BA15BA11
S11304E095B36C5F7F4F21E030E0A901062E02C076
S11304F0440F551F0A94E2F7492B45BB94B302C03D
S1130500220F331F8A95E2F7922B94BB85B3209573
S1130510282325BB23B330E002C0359527956A957F
S1130520E2F781E090E020FF02C080E090E00895CF
S1130530AF92BF92CF92DF92EF92FF920F931F93ED
S1130540CF93DF93C0E0D0E063E070E0CE010E947F
S11305506E02892B21F0CE018F5B9F4F4DC02196F7
S1130560C430D10589F7A12CB12C1EC00E2D1F2D2E
S1130570BE018E2D9F2D0E946E02892B51F0C80161
S1130580880F991F080F191F0C0F1D1FC801C19652
S113059033C02196C330D10549F78FEFA81AB80AA2
S11305A083E0A816B10429F0C0E0D0E0EA2CFB2CCB
S11305B0DDCF61E070E083E090E00E946E02892B61
S11305C099F460E070E083E090E00E946E02892B71
S11305D071F462E070E083E090E00E946E02892B87
S11305E049F48AE590E008C080E390E005C08AE21F
S11305F090E002C083E290E0DF91CF911F910F91D0
S1130600FF90EF90DF90CF90BF90AF900895662356
S113061011F0C09A01C0C098C19882BB8FEF81BB12
S1130620C29A000000000000C2980895C098C19AC0
S113063011BA90B3C29A00000000000011BA90B33E
S1130640C29899239CF30E9407030895B89AB99A13
S1130650BA9A80E190E00E94490060E080E30E9441
S1130660070385E090E00E94490060E080E30E9477
S1130670070381E090E00E94490060E08CE30E945F
S1130680160360E08CE00E94160360E086E00E949E
S1130690160360E081E00E941603089560E081E0A3
S11306A00E9416030895CF93C62F98E2899FC00D28
S11306B0112460E082E00E941603CC2331F060E054
S11306C084E10E941603C150D1F7CF910895CF93CE
S11306D0DF93EC012196FC018081882331F061E0F5
S11306E00E94160389918111FACFDF91CF91089569
S11306F05F926F927F928F929F92AF92BF92CF92AE
S1130700DF92EF92FF920F931F93CF93DF9316160E
S113071017060CF064C0A82FB92FE5EAF2E0660FC3
S1130720771F660F771F6B557D4FC6E091E016E289
S1130730D1E00F2EFAE4FF2EF02D01E00F2EFDE59F
S1130740DF2EF02DEE24E3940F2EF8E8BF2EF02DCB
S1130750CC24C3940F2EF8EB9F2EF02DAA24A3943F
S11307600F2EFEEE7F2EF02D882483940F2EFBE0B7
S11307705F2EF02D6894662461F841E050E08D917D
S1130780813389F0823391F0833399F08433A1F07B
S11307908533A9F08633B1F08733B9F08833B9F4DF
S11307A0252D362D14C02C2F392F11C0212F3D2F6C
S11307B00EC02F2D302F0BC02D2D3E2D08C02B2DFC
S11307C03C2D05C0292D3A2D02C0272D382D20831C
S11307D03183538342833496E617F70781F6DF911A
S11307E0CF911F910F91FF90EF90DF90CF90BF902A
S11307F0AF909F908F907F906F905F9008958F92AD
S11308009F92AF92BF92CF92DF92EF92FF920F939B
S11308101F93CF93DF93D82FC92F4B010E944E0310
S113082018141904F4F5CD2EDC2E0F2EF5EAEF2E54
S1130830F2E0FF2EF02DC0E0D0E00F2EF3E0AF2E5B
S1130840F2E0BF2EF02D0DE613E02196DF93CF9357
S1130850BF92AF921F930F930E943C0860E080E028
S11308600E945303C8010E946703F60181916F013E
S11308700E946D002AE939E949E95EE361E070E02C
S1130880F701808191810E948505F4E0EF0EF11C4F
S11308900F900F900F900F900F900F908C169D0655
S11308A0A1F6DF91CF911F910F91FF90EF90DF9010
S11308B0CF90BF90AF909F908F9008950E944E0369
S11308C081E1E1E1F2E0ADE6B3E001900D928A95B9
S11308D0E1F760E080E00E9453038DE693E00E941C
S11308E0670381E1E2E2F2E0ADE6B3E001900D924C
S11308F08A95E1F760E081E00E9453038DE693E07E
S11309000E9467030895CF93DF93CDB7DEB7A7970F
S11309100FB6F894DEBF0FBECDBF0E9426030E941F
S11309208205D19AD29A89E1E0E6F0E0DE011196DF
S113093001900D928A95E1F78EE0E9E7F0E0DE019F
S11309405A9601900D928A95E1F70E945E0410E098
S113095001E00E9498028093A402F12EAAC081347F
S113096069F4F110ACC041E050E069E170E0CE01FF
S113097001960E948F018823B1F3A1C0823479F4D7
S11309800BC042E050E06EE070E0CE014A960E9457
S11309908F018823B1F396C0F11094C0F2CF833451
S11309A079F40BC0D99A62E370E082E792E00E9486
S11309B01E01D9988823B1F388C0FF2099F385C01C
S11309C0843409F06CC00E944E03F11061C00E948F
S11309D098028093A40280916E0290916F02009716
S11309E019F580E1E8E3F2E0ADE6B3E001900D92A1
S11309F08A95E1F7612F812F0E9453038DE693E0DE
S1130A000E94670380E1E8E4F2E0ADE6B3E0019020
S1130A100D928A95E1F7612F802F0E9453038DE692
S1130A2093E00E94670366C0181619060CF062C0B2
S1130A3088E0E8E5F2E0ADE6B3E001900D928A9536
S1130A40E1F7612F812F0E9453038DE693E00E940A
S1130A5067038DE0E0E6F2E0ADE6B3E001900D92CD
S1130A608A95E1F7612F802F0E9453038DE693E06E
S1130A700E946703DA9A60916E0270916F022AE90C
S1130A8039E949E95EE385EA92E00E94FC05DA98D7
S1130A900E945E040E9498028093A40231C00E94C6
S1130AA098028093A402F11004C00E9498028093DB
S1130AB0A4028091A4028A3509F051CF4ACF0E9442
S1130AC05E041EC00E945E041BC060916E027091A1
S1130AD06F0282E792E00E947803DA9A60916E02D4
S1130AE070916F0282E792E00E94FF03DA980E94FD
S1130AF05E0406C08091A4028A3209F068CFC8CF90
S1130B00F02ED7CFD09AD89A08954F925F926F92D1
S1130B107F928F929F92AF92BF92CF92DF92EF9289
S1130B20FF92CF93DF93EC017B0149015A01BC0191
S1130B30990F880B990B0E941A079B01AC0160E086
S1130B4070E080E89FE30E94770620E030E44CE107
S1130B5056E40E94AB0720E030E040E05FE30E94EF
S1130B60AB072B013C01CE9DB001CF9D700DDE9DE6
S1130B70700D1124072E000C880B990B0E941A0784
S1130B80A50194010E94AB074B015C0120E030E019
S1130B90A9010E94A607181604F5C0E0D0E0D89A6F
S1130BA0C301B2010E94E9066B017C01CB010E94E2
S1130BB04900D898C6010E9449002196BE010D2E15
S1130BC0000C880B990B0E941A079B01AC01C5010C
S1130BD0B4010E94A607181614F3DF91CF91FF9079
S1130BE0EF90DF90CF90BF90AF909F908F907F90C9
S1130BF06F905F904F9008958F929F92AF92BF92A3
S1130C00EF92FF920F931F93CF93DF93161617065D
S1130C10CCF449015A017B01C82FD92F00E010E020
S1130C206A817B81A5019401888199810E9485054F
S1130C3084E690E00E9449000F5F1F4F2496E0165F
S1130C40F10671F7DF91CF911F910F91FF90EF9013
S1130C50BF90AF909F908F900895CF93DF93CDB7BF
S1130C60DEB7CC55D1090FB6F894DEBF0FBECDBFA9
S1130C709B01AC018CE5E7E8F0E0DE011196019000
S1130C800D928A95E1F767E170E0CE0101960E942A
S1130C90FC05C45ADF4F0FB6F894DEBF0FBECDBFBC
S1130CA0DF91CF910895CF93DF93CDB7DEB7E89767
S1130CB00FB6F894DEBF0FBECDBF9B01AC0188E335
S1130CC0EBE8F1E0DE01119601900D928A95E1F7CF
S1130CD06EE070E0CE0101960E94FC05E8960FB626
S1130CE0F894DEBF0FBECDBFDF91CF9108950E946F
S1130CF08B060C946C070E94650758F00E945E07EF
S1130D0040F029F45F3F29F00C94550751110C94DD
S1130D10A0070C945B070E947D0768F39923B1F345
S1130D20552391F3951B550BBB27AA27621773070D
S1130D30840738F09F5F5F4F220F331F441FAA1FA1
S1130D40A9F335D00E2E3AF0E0E832D0915050405D
S1130D50E695001CCAF72BD0FE2F29D0660F771F0B
S1130D60881FBB1F261737074807AB07B0E809F0F1
S1130D70BB0B802DBF01FF2793585F4F3AF09E3F76
S1130D80510578F00C9455070C94A0075F3FE4F3E9
S1130D90983ED4F3869577956795B795F7959F5FB9
S1130DA0C9F7880F911D9695879597F90895E1E005
S1130DB0660F771F881FBB1F621773078407BA0764
S1130DC020F0621B730B840BBA0BEE1F88F7E095BF
S1130DD008950E94850788F09F5798F0B92F9927A6
S1130DE0B751B0F0E1F0660F771F881F991F1AF012
S1130DF0BA95C9F714C0B13091F00E949F07B1E0D1
S1130E0008950C949F07672F782F8827B85F39F0CF
S1130E10B93FCCF3869577956795B395D9F73EF4AA
S1130E2090958095709561957F4F8F4F9F4F089552
S1130E30E89409C097FB3EF4909580957095619570
S1130E407F4F8F4F9F4F9923A9F0F92F96E9BB2726
S1130E509395F695879577956795B795F111F8CFA2
S1130E60FAF4BB0F11F460FF1BC06F5F7F4F8F4F0D
S1130E709F4F16C0882311F096E911C0772321F003
S1130E809EE8872F762F05C0662371F096E8862F9B
S1130E9070E060E02AF09A95660F771F881FDAF7F2
S1130EA0880F9695879597F9089597F99F6780E835
S1130EB070E060E008959FEF80EC089500240A94A8
S1130EC01616170618060906089500240A94121621
S1130ED01306140605060895092E0394000C11F454
S1130EE0882352F0BB0F40F4BF2B11F460FF04C001
S1130EF06F5F7F4F8F4F9F4F089557FD9058440F5A
S1130F00551F59F05F3F71F04795880F97FB991F64
S1130F1061F09F3F79F08795089512161306140621
S1130F20551FF2CF4695F1DF08C0161617061806AE
S1130F30991FF1CF86957105610508940895E89489
S1130F40BB2766277727CB0197F908950E941808D5
S1130F5008F48FEF08950E94BE070C946C070E945A
S1130F605E0738F00E94650720F0952311F00C9479
S1130F7055070C945B0711240C94A0070E947D076D
S1130F8070F3959FC1F3950F50E0551F629FF001D8
S1130F90729FBB27F00DB11D639FAA27F00DB11DF1
S1130FA0AA1F649F6627B00DA11D661F829F22277A
S1130FB0B00DA11D621F739FB00DA11D621F839F01
S1130FC0A00D611D221F749F3327A00D611D231FD7
S1130FD0849F600D211D822F762F6A2F11249F5725
S1130FE050409AF0F1F088234AF0EE0FFF1FBB1F28
S1130FF0661F771F881F91505040A9F79E3F5105E7
S113100080F00C9455070C94A0075F3FE4F3983EDE
S1131010D4F3869577956795B795F795E7959F5F90
S1131020C1F7FE2B880F911D9695879597F9089522
S1131030990F0008550FAA0BE0E8FEEF16161706E5
S1131040E807F907C0F012161306E407F50798F04D
S1131050621B730B840B950B39F40A2661F0232B66
S1131060242B252B21F408950A2609F4A140A695E2
S11310708FEF811D811D0895AEE0B0E0E2E4F8E059
S11310800C94FD0A0D891E8986E08C831A830983DA
S11310908FEF9FE79E838D83AE01475E5F4F6F891D
S11310A0788DCE0101960E945E08EF81F885E00FED
S11310B0F11F10822E96E4E00C94190BABE0B0E023
S11310C0E4E6F8E00C94EF0A6C017B018A01FC0170
S11310D017821682838181FFCCC1CE0101963C0127
S11310E0F6019381F70193FD859193FF81917F012F
S11310F0882309F4BAC1853239F493FD859193FFAD
S113110081917F01853229F4B60190E00E94550A4D
S1131110E7CF912C212C312CFFE1F315D8F08B3241
S113112079F038F4803279F08332A1F4232D2061F0
S11311301DC08D3261F0803369F4232D216016C007
S1131140832D8260382EE32DE4603E2E2AC0F32DD9
S1131150F8601DC037FC2DC020ED280F2A3040F068
S11311608E32B9F436FC81C1232D2064322E19C08D
S113117036FE06C08AE0989E200D1124922E11C0DE
S1131180EAE02E9E200D1124222EF32DF0623F2E34
S113119008C08C3621F4832D8068382E02C088362E
S11311A041F4F70193FD859193FF81917F018111B2
S11311B0B3CF982F9F7D9554933028F40C5F1F4F25
S11311C09FE399830DC0833631F0833771F0833503
S11311D009F059C021C0F801808189830E5F1F4F37
S11311E088248394912C530113C02801F2E04F0EFC
S11311F0511CF801A080B18036FE03C0692D70E057
S113120002C06FEF7FEFC5010E944A0A4C018201C0
S1131210F32DFF773F2E16C0280122E0420E511C09
S1131220F801A080B18036FE03C0692D70E002C0D1
S11312306FEF7FEFC5010E943F0A4C01F32DF06868
S11312403F2E820133FC1BC0822D90E08816990644
S1131250B0F4B60180E290E00E94550A2A94F4CFDB
S1131260F50137FC859137FE81915F01B60190E06D
S11312700E94550A21102A9421E0821A91088114AF
S1131280910471F7E8C0843611F0893641F5F8010C
S113129037FE07C060817181828193810C5F1F4F8B
S11312A008C060817181072E000C880B990B0E5FBA
S11312B01F4FF32DFF763F2E97FF09C09095809521
S11312C0709561957F4F8F4F9F4FF0683F2E2AE0B6
S11312D030E0A3010E94910A882E861845C0853704
S11312E031F4232D2F7EB22E2AE030E025C0932D39
S11312F0997FB92E8F36C1F018F4883579F0B5C0CE
S1131300803719F0883721F0B0C0E92FE061BE2E94
S1131310B4FE0DC0FB2DF460BF2E09C034FE0AC01C
S1131320292F2660B22E06C028E030E005C020E157
S113133030E002C020E132E0F801B7FE07C060816E
S11313407181828193810C5F1F4F06C0608171811E
S113135080E090E00E5F1F4FA3010E94910A882E47
S11313608618FB2DFF773F2E36FE0DC0232D2E7FD2
S1131370A22E891458F434FE0BC032FC09C0832D0C
S11313808E7EA82E05C0B82CA32C03C0B82C01C097
S1131390B92CA4FE0FC0FE01E80DF11D808180333D
S11313A021F49A2D997EA92E09C0A2FE06C0B394F9
S11313B0B39404C08A2D867809F0B394A3FC11C0B9
S11313C0A0FE06C0B21488F4280C922C9B180EC000
S11313D0B21460F4B60180E290E00E94550AB3941E
S11313E0F7CFB21418F42B1802C0982C212CA4FEA9
S11313F010C0B60180E390E00E94550AA2FE17C017
S1131400A1FC03C088E790E002C088E590E0B60143
S11314100CC08A2D867859F0A1FE02C08BE201C06F
S113142080E2A7FC8DE2B60190E00E94550A89147F
S113143038F4B60180E390E00E94550A9A94F7CFFD
S11314408A94F301E80DF11D8081B60190E00E94B9
S1131450550A8110F5CF222009F442CEB60180E26C
S113146090E00E94550A2A94F6CFF601868197816E
S113147002C08FEF9FEF2B96E2E10C940B0BFC0163
S11314800590615070400110D8F7809590958E0FAB
S11314909F1F0895FC016150704001900110D8F71E
S11314A0809590958E0F9F1F08950F931F93CF9350
S11314B0DF93FB01238121FD03C08FEF9FEF2CC03D
S11314C022FF16C046815781248135814217530774
S11314D044F4A081B1819D012F5F3F4F318320836C
S11314E08C93268137812F5F3F4F3783268314C027
S11314F08B01EC01FB010084F185E02D0995892B1A
S1131500E1F6D80116968D919C911797019617963E
S11315109C938E931697CE01DF91CF911F910F91DB
S11315200895FA01AA27283051F1203181F1E89475
S11315306F936E7F6E5F7F4F8F4F9F4FAF4FB1E0C2
S11315403ED0B4E03CD0670F781F891F9A1FA11DBD
S1131550680F791F8A1F911DA11D6A0F711D811DBE
S1131560911DA11D20D009F468943F912AE0269F83
S113157011243019305D3193DEF6CF010895462FE2
S11315804770405D4193B3E00FD0C9F7F6CF462FC3
S11315904F70405D4A3318F0495D31FD405241932C
S11315A002D0A9F7EACFB4E0A695979587957795E9
S11315B06795BA95C9F700976105710508959B0170
S11315C0AC010A2E06945795479537952795BA95F9
S11315D0C9F7620F731F841F951FA01D08952F92D2
S11315E03F924F925F926F927F928F929F92AF92AF
S11315F0BF92CF92DF92EF92FF920F931F93CF93FC
S1131600DF93CDB7DEB7CA1BDB0B0FB6F894DEBF92
S11316100FBECDBF09942A88398848885F846E84B8
S11316207D848C849B84AA84B984C884DF80EE8002
S1131630FD800C811B81AA81B981CE0FD11D0FB60B
S1131640F894DEBF0FBECDBFED010895F894FFCF2F
S1131650313132313433313132313534313138365C
S1131660343332373736343534313135353636352F
S113167034343333323231060101000601010026CD
S1131680010100060101005D0101004A010100069B
S11316900102000601010026010100060101008883
S11316A00101005D01010006010100060101000BBA
S11316B0020100B80101005D0101004A0101002698
S11316C0010100EE0102005D010100880101005DDD
S11316D001010006010100060101008801010088E2
S11316E0010100B8010100B8010100880102005D98
S11316F00101005D0101004A0101004A01010026C7
S11317000101002601010006010200880101008890
S11317100101005D0101005D0101004A0101004A6F
S11317200101002601020088010100880101005D19
S11317300101005D0101004A0101004A0101002686
S11317400102000601010006010100880101008870
S1131750010100B8010100B8010100880102005D27
S11317600101005D0101004A0101004A0101002656
S11317700101002601010006010300060101000623
S11317800101008801010088010100B8010100B8CD
S1131790010100880102005D0101005D0101004AB0
S11317A00101004A01010026010100260101000691
S11317B00102005265632E204E6F74654C65667499
S11317C03A25690050726573733A20256300253009
S11317D032692F2530326900434F52524543542118
S11317E000436F6D706C6574656420536F6E672081
S11317F0256900596F7572206E6F74652320256901
S113180000413A536F6E673120433A5265636F72F9
S11318106400423A536F6E673220443A5265506C0A
S113182061790044444444004E6F20736F6E672016
S1131830746F20706C6179007072657373202A2054
S1131840746F206578697400506C6179696E670003
S1111850796F757220736F6E672E2E2E000056
S9030000FC
