:100000000C942A000C9447000C9447000C94470071
:100010000C9447000C9447000C9447000C94470044
:100020000C9447000C9447000C9447000C94470034
:100030000C9447000C9447000C9447000C94470024
:100040000C9447000C9447000C9447000C94470014
:100050000C94470011241FBECFE5D8E0DEBFCDBF12
:1000600010E0A0E6B0E0E8EEFFE002C005900D92DF
:10007000A23CB107D9F720E0A2ECB0E001C01D928C
:10008000A53DB207E1F70E9497020C94F2070C9489
:1000900000009C0182E083BF83EF08C082BF98B755
:1000A000916098BFA89508B600FEFDCF2150310998
:1000B000A8F713BE08959C0183E083BF83E808C0BE
:1000C00082BF98B7916098BFA89508B600FEFDCF93
:1000D00021503109A8F713BE089514BA15BA95B383
:1000E0006C5F7F4F21E030E0A901062E02C0440F73
:1000F000551F0A94E2F7492B45BB94B302C0220F67
:10010000331F8A95E2F7922B94BB85B32095282361
:1001100025BB23B330E002C0359527956A95E2F7F9
:1001200081E090E020FF02C080E090E00895AF926F
:10013000BF92CF92DF92EF92FF920F931F93CF93D4
:10014000DF93C0E0D0E063E070E0CE010E946D007C
:10015000892B21F0CE018F5B9F4F4DC02196C4307B
:10016000D10589F7A12CB12C1EC00E2D1F2DBE016B
:100170008E2D9F2D0E946D00892B51F0C801880F94
:10018000991F080F191F0C0F1D1FC801C19633C0FE
:100190002196C330D10549F78FEFA81AB80A83E03A
:1001A000A816B10429F0C0E0D0E0EA2CFB2CDDCF8A
:1001B00061E070E083E090E00E946D00892B99F48B
:1001C00060E070E083E090E00E946D00892B71F4A4
:1001D00062E070E083E090E00E946D00892B49F4BA
:1001E0008AE590E008C080E390E005C08AE290E0F4
:1001F00002C083E290E0DF91CF911F910F91FF90B9
:10020000EF90DF90CF90BF90AF900895662311F0EC
:10021000C09A01C0C098C19882BB8FEF81BBC29ABF
:10022000000000000000C2980895C098C19A11BA59
:1002300090B3C29A00000000000011BA90B3C298B7
:1002400099239CF30E9406010895B89AB99ABA9A24
:1002500080E190E00E94490060E080E30E94060196
:1002600085E090E00E94490060E080E30E94060182
:1002700081E090E00E94490060E08CE30E9415015B
:1002800060E08CE00E94150160E086E00E941501AC
:1002900060E081E00E941501089560E081E00E9425
:1002A00015010895CF93C62F98E2899FC00D1124A0
:1002B00060E082E00E941501CC2331F060E084E12F
:1002C0000E941501C150D1F7CF910895CF93DF93CC
:1002D000EC012196FC018081882331F061E00E94CD
:1002E000150189918111FACFDF91CF9108950F9374
:1002F0001F93CF93DF93CDB7DEB761970FB6F89416
:10030000DEBF0FBECDBF9F938F9386EA90E09F9391
:100310008F938E010F5F1F4F1F930F930E9408054D
:1003200060E081E00E945201C8010E94660182E300
:1003300090E00E945B000F900F900F900F900F9035
:100340000F9061960FB6F894DEBF0FBECDBFDF9160
:10035000CF911F910F910895CF93DF930E94970043
:10036000EC018133910559F461E070E086E091E0A1
:100370000E94CC0281E090E00E9477011BC0823392
:10038000910559F461E070E086E291E00E94CC02B0
:1003900082E090E00E9477011BC0C39759F461E0AE
:1003A00070E08AE491E00E94CC0283E090E00E9439
:1003B00077011CC0C433D10559F461E070E08DE5CC
:1003C00091E00E94CC0284E090E00E9477011CC082
:1003D000C533D10559F461E070E088E891E00E94EE
:1003E000CC0285E090E00E9477011CC0C633D105A5
:1003F00059F461E070E088EB91E00E94CC0286E065
:1004000090E00E9477011BC0C733D10559F461E029
:1004100070E08EEE91E00E94CC0287E090E00E94B6
:1004200077010DC0C833D10551F461E070E08BE075
:1004300092E00E94CC0288E090E00E947701CE0119
:10044000DF91CF9108950F931F93CF93DF938C018A
:10045000EB018AE090E00E945B000E94AC012091D9
:10046000C2003091C3002C173D070CF052C0F801B8
:10047000E20FF31F408150E084179507F9F42F5FD6
:100480003F4F3093C3002093C200DA9A89E0E9EA33
:10049000F0E0A4ECB0E001900D928A95E1F760E005
:1004A00081E00E94520184EC90E00E94660182E3A8
:1004B00090E00E945B000E944D0108C08A359105C2
:1004C00029F0D99A82E390E00E945B00D998DA98EB
:1004D000E091C200F091C300E00FF11F80811F92F4
:1004E0008F9382EB90E09F938F9384EC90E09F93A7
:1004F0008F930E94080560E080E00E94520184EC26
:1005000090E00E9466010F900F900F900F900F9057
:100510000F9081E02091C2003091C3002C173D075D
:1005200009F080E0DF91CF911F910F910895CF9353
:10053000DF9300D000D01F92CDB7DEB70E94250117
:100540000E94C902D19AD29A85E0E0E6F0E0DE018D
:10055000119601900D928A95E1F765E070E0CE0169
:1005600001960E9423028823C1F30E944D0185E079
:10057000ECEBF0E0A4ECB0E001900D928A95E1F78D
:1005800060E080E00E94520184EC90E00E946601ED
:10059000E4CFD09AD89A08954F925F926F927F924B
:1005A0008F929F92AF92BF92CF92DF92EF92FF9283
:1005B000CF93DF93EC017B01BC01990F880B990B62
:1005C0000E94E6039B01AC0160E070E080E89FE3DD
:1005D0000E94430320E030E44CE156E40E949B0477
:1005E00020E030E040E05FE30E949B042B013C01EF
:1005F000CE9DB001CF9D700DDE9D700D1124072E94
:10060000000C880B990B0E94E60320E030E040E0EC
:100610005FE30E949B044B015C0120E030E0A901F4
:100620000E949604181604F5C0E0D0E0D89AC301E1
:10063000B2010E94B5036B017C01CB010E9449000D
:10064000D898C6010E9449002196BE010D2E000CCB
:10065000880B990B0E94E6039B01AC01C501B40114
:100660000E949604181614F3DF91CF91FF90EF903B
:10067000DF90CF90BF90AF909F908F907F906F90C2
:100680005F904F9008950E9457030C945C040E9461
:10069000550458F00E944E0440F029F45F3F29F0C1
:1006A0000C94450451110C9490040C944B040E943A
:1006B0006D0468F39923B1F3552391F3951B550B02
:1006C000BB27AA2762177307840738F09F5F5F4F25
:1006D000220F331F441FAA1FA9F335D00E2E3AF064
:1006E000E0E832D091505040E695001CCAF72BD07C
:1006F000FE2F29D0660F771F881FBB1F26173707CD
:100700004807AB07B0E809F0BB0B802DBF01FF27FE
:1007100093585F4F3AF09E3F510578F00C94450492
:100720000C9490045F3FE4F3983ED4F3869577955C
:100730006795B795F7959F5FC9F7880F911D9695B7
:10074000879597F90895E1E0660F771F881FBB1F13
:10075000621773078407BA0720F0621B730B840BC0
:10076000BA0BEE1F88F7E09508950E94750488F093
:100770009F5798F0B92F9927B751B0F0E1F0660F65
:10078000771F881F991F1AF0BA95C9F714C0B130A6
:1007900091F00E948F04B1E008950C948F04672FAC
:1007A000782F8827B85F39F0B93FCCF386957795D5
:1007B0006795B395D9F73EF49095809570956195BE
:1007C0007F4F8F4F9F4F0895E89409C097FB3EF4E9
:1007D00090958095709561957F4F8F4F9F4F99238E
:1007E000A9F0F92F96E9BB279395F695879577950C
:1007F0006795B795F111F8CFFAF4BB0F11F460FFCC
:100800001BC06F5F7F4F8F4F9F4F16C0882311F023
:1008100096E911C0772321F09EE8872F762F05C037
:10082000662371F096E8862F70E060E02AF09A95D2
:10083000660F771F881FDAF7880F9695879597F9C7
:100840000895990F0008550FAA0BE0E8FEEF161661
:100850001706E807F907C0F012161306E407F507B4
:1008600098F0621B730B840B950B39F40A2661F028
:10087000232B242B252B21F408950A2609F4A140CB
:10088000A6958FEF811D811D089597F99F6780E8D8
:1008900070E060E008959FEF80EC089500240A94D2
:1008A0001616170618060906089500240A9412164B
:1008B0001306140605060895092E0394000C11F47E
:1008C000882352F0BB0F40F4BF2B11F460FF04C02B
:1008D0006F5F7F4F8F4F9F4F089557FD9058440F84
:1008E000551F59F05F3F71F04795880F97FB991F8F
:1008F00061F09F3F79F0879508951216130614064C
:10090000551FF2CF4695F1DF08C0161617061806D8
:10091000991FF1CF86957105610508940895E894B3
:10092000BB2766277727CB0197F908950E942104FA
:1009300008F48FEF08950E94AE040C945C040E94AA
:100940004E0438F00E94550420F0952311F00C94C9
:1009500045040C944B0411240C9490040E946D04E3
:1009600070F3959FC1F3950F50E0551F629FF00102
:10097000729FBB27F00DB11D639FAA27F00DB11D1B
:10098000AA1F649F6627B00DA11D661F829F2227A4
:10099000B00DA11D621F739FB00DA11D621F839F2B
:1009A000A00D611D221F749F3327A00D611D231F01
:1009B000849F600D211D822F762F6A2F11249F574F
:1009C00050409AF0F1F088234AF0EE0FFF1FBB1F52
:1009D000661F771F881F91505040A9F79E3F510511
:1009E00080F00C9445040C9490045F3FE4F3983E2F
:1009F000D4F3869577956795B795F795E7959F5FBB
:100A0000C1F7FE2B880F911D9695879597F908954C
:100A1000AEE0B0E0EEE0F5E00C94C9070D891E8968
:100A200086E08C831A8309838FEF9FE79E838D83F3
:100A3000AE01475E5F4F6F89788DCE0101960E94AF
:100A40002A05EF81F885E00FF11F10822E96E4E071
:100A50000C94E507ABE0B0E0E0E3F5E00C94BB07F5
:100A60006C017B018A01FC0117821682838181FF60
:100A7000CCC1CE0101963C01F6019381F70193FDB3
:100A8000859193FF81917F01882309F4BAC1853252
:100A900039F493FD859193FF81917F01853229F48B
:100AA000B60190E00E942107E7CF912C212C312C38
:100AB000FFE1F315D8F08B3279F038F4803279F019
:100AC0008332A1F4232D20611DC08D3261F080336B
:100AD00069F4232D216016C0832D8260382EE32D0A
:100AE000E4603E2E2AC0F32DF8601DC037FC2DC0F7
:100AF00020ED280F2A3040F08E32B9F436FC81C147
:100B0000232D2064322E19C036FE06C08AE0989E3E
:100B1000200D1124922E11C0EAE02E9E200D1124EA
:100B2000222EF32DF0623F2E08C08C3621F4832D47
:100B30008068382E02C0883641F4F70193FD859114
:100B400093FF81917F018111B3CF982F9F7D9554A1
:100B5000933028F40C5F1F4F9FE399830DC08336B9
:100B600031F0833771F0833509F059C021C0F801A5
:100B7000808189830E5F1F4F88248394912C5301B9
:100B800013C02801F2E04F0E511CF801A080B18083
:100B900036FE03C0692D70E002C06FEF7FEFC50124
:100BA0000E9416074C018201F32DFF773F2E16C0DD
:100BB000280122E0420E511CF801A080B18036FECF
:100BC00003C0692D70E002C06FEF7FEFC5010E9486
:100BD0000B074C01F32DF0683F2E820133FC1BC044
:100BE000822D90E088169906B0F4B60180E290E07C
:100BF0000E9421072A94F4CFF50137FC859137FE36
:100C000081915F01B60190E00E94210721102A9492
:100C100021E0821A91088114910471F7E8C08436AA
:100C200011F0893641F5F80137FE07C06081718106
:100C3000828193810C5F1F4F08C060817181072EF4
:100C4000000C880B990B0E5F1F4FF32DFF763F2E84
:100C500097FF09C090958095709561957F4F8F4F54
:100C60009F4FF0683F2E2AE030E0A3010E945D070D
:100C7000882E861845C0853731F4232D2F7EB22E5D
:100C80002AE030E025C0932D997FB92E8F36C1F030
:100C900018F4883579F0B5C0803719F0883721F01D
:100CA000B0C0E92FE061BE2EB4FE0DC0FB2DF46094
:100CB000BF2E09C034FE0AC0292F2660B22E06C0FE
:100CC00028E030E005C020E130E002C020E132E061
:100CD000F801B7FE07C060817181828193810C5F4A
:100CE0001F4F06C06081718180E090E00E5F1F4F52
:100CF000A3010E945D07882E8618FB2DFF773F2EEB
:100D000036FE0DC0232D2E7FA22E891458F434FEFA
:100D10000BC032FC09C0832D8E7EA82E05C0B82CD6
:100D2000A32C03C0B82C01C0B92CA4FE0FC0FE0137
:100D3000E80DF11D8081803321F49A2D997EA92E32
:100D400009C0A2FE06C0B394B39404C08A2D86786D
:100D500009F0B394A3FC11C0A0FE06C0B21488F43D
:100D6000280C922C9B180EC0B21460F4B60180E2DD
:100D700090E00E942107B394F7CFB21418F42B1817
:100D800002C0982C212CA4FE10C0B60180E390E094
:100D90000E942107A2FE17C0A1FC03C088E790E0D3
:100DA00002C088E590E0B6010CC08A2D867859F023
:100DB000A1FE02C08BE201C080E2A7FC8DE2B60179
:100DC00090E00E942107891438F4B60180E390E096
:100DD0000E9421079A94F7CF8A94F301E80DF11D40
:100DE0008081B60190E00E9421078110F5CF22207A
:100DF00009F442CEB60180E290E00E9421072A94D5
:100E0000F6CFF6018681978102C08FEF9FEF2B9678
:100E1000E2E10C94D707FC0105906150704001108D
:100E2000D8F7809590958E0F9F1F0895FC01615013
:100E3000704001900110D8F7809590958E0F9F1FFC
:100E400008950F931F93CF93DF93FB01238121FD1F
:100E500003C08FEF9FEF2CC022FF16C04681578141
:100E6000248135814217530744F4A081B1819D014B
:100E70002F5F3F4F318320838C93268137812F5FF3
:100E80003F4F3783268314C08B01EC01FB010084A4
:100E9000F185E02D0995892BE1F6D80116968D9103
:100EA0009C911797019617969C938E931697CE0157
:100EB000DF91CF911F910F910895FA01AA27283051
:100EC00051F1203181F1E8946F936E7F6E5F7F4F17
:100ED0008F4F9F4FAF4FB1E03ED0B4E03CD0670F93
:100EE000781F891F9A1FA11D680F791F8A1F911DE6
:100EF000A11D6A0F711D811D911DA11D20D009F436
:100F000068943F912AE0269F11243019305D319377
:100F1000DEF6CF010895462F4770405D4193B3E060
:100F20000FD0C9F7F6CF462F4F70405D4A3318F007
:100F3000495D31FD4052419302D0A9F7EACFB4E0B8
:100F4000A6959795879577956795BA95C9F7009770
:100F50006105710508959B01AC010A2E0694579511
:100F6000479537952795BA95C9F7620F731F841F68
:100F7000951FA01D08952F923F924F925F926F92FE
:100F80007F928F929F92AF92BF92CF92DF92EF9219
:100F9000FF920F931F93CF93DF93CDB7DEB7CA1B9A
:100FA000DB0B0FB6F894DEBF0FBECDBF09942A88C5
:100FB000398848885F846E847D848C849B84AA846D
:100FC000B984C884DF80EE80FD800C811B81AA81FA
:100FD000B981CE0FD11D0FB6F894DEBF0FBECDBFC5
:080FE000ED010895F894FFCF24
:100FE800313231343353706565643F204E6F726D12
:100FF800616C3C333E00205331205332204E332065
:1010080046342046352000413A20486170707920E6
:10101800422D44617900423A205477696E6B6C65C1
:10102800205374617200256900434F52524543545E
:10103800210050726573733A20256300446F6E6512
:021048000000A6
:00000001FF
