S00D000070726F6A322E737265632A
S11300000C942A000C9434000C9434000C943400A6
S11300100C9434000C9434000C9434000C9434008C
S11300200C9434000C9434000C9434000C9434007C
S11300300C9434000C9434000C9434000C9434006C
S11300400C9434000C9434000C9434000C9434005C
S11300500C94340011241FBECFE5D8E0DEBFCDBF21
S11300600E9498000C94AB000C9400009C0183E067
S113007083BF80EF07C082BF98B7916098BF08B66E
S113008000FEFDCF21503109B0F713BE089514BA14
S113009015BA95B36C5F7F4F21E030E0A901062EBD
S11300A002C0440F551F0A94E2F7492B45BB94B391
S11300B002C0220F331F8A95E2F7922B94BB85B3BB
S11300C02095282325BB23B330E002C0359527951E
S11300D06A95E2F781E090E020FF02C080E090E0C2
S11300E008950F931F93CF93DF9300E010E018C09F
S11300F0BE01C8010E944700009749F0000F111F7C
S1130100000F111FC00FD11FCE0101960CC0219604
S1130110C430D10569F70F5F1F4F0430110519F082
S1130120C0E0D0E0E5CFDF91CF911F910F9108950A
S1130130B89AC0980E947100019759F4C09A84EF4C
S113014091E00E943600C09884EF91E00E9436004E
S10D0150F1CF9898EFCFF894FFCF99
S9030000FC
