S00D000070726F6A322E737265632A
S11300000C942A000C943F000C943F000C943F0085
S11300100C943F000C943F000C943F000C943F0060
S11300200C943F000C943F000C943F000C943F0050
S11300300C943F000C943F000C943F000C943F0040
S11300400C943F000C943F000C943F000C943F0030
S11300500C943F0011241FBECFE5D8E0DEBFCDBF16
S113006010E0A0E6B0E0E4E7F9E002C005900D92EC
S1130070A636B107D9F70E9420010C94B8040C9459
S113008000008FE081BD08959C0183E083BF83E875
S113009008C082BF98B7916098BFA89508B600FEC3
S11300A0FDCF21503109A8F713BE0895662311F03E
S11300B0C09A01C0C098C19882BB8FEF81BBC29A1D
S11300C0000000000000C2980895C098C19A11BAB7
S11300D090B3C29A00000000000011BA90B3C29815
S11300E099239CF30E9456000895B89AB99ABA9A33
S11300F080E190E00E94440060E080E30E945600AA
S113010085E090E00E94440060E080E30E94560095
S113011081E090E00E94440060E08CE30E9465006E
S113012060E08CE00E94650060E086E00E9465006B
S113013060E081E00E9465000895CF93C62F98E2A5
S1130140899FC00D112460E082E00E946500CC23E9
S113015031F060E084E10E946500C150D1F7CF9195
S11301600895CF93DF93EC012196FC0180818823CD
S113017031F061E00E94650089918111FACFDF912D
S1130180CF91089514BA15BA95B36C5F7F4F21E0EF
S113019030E0A901062E02C0440F551F0A94E2F76D
S11301A0492B45BB94B302C0220F331F8A95E2F753
S11301B0922B94BB85B32095282325BB23B330E031
S11301C002C0359527956A95E2F781E090E020FF1B
S11301D002C080E090E008950F931F93CF93DF93C4
S11301E000E010E018C0BE01C8010E94C2000097E0
S11301F049F0000F111F000F111FC00FD11FCE01B6
S113020001960CC02196C430D10569F70F5F1F4FCA
S11302100430110519F0C0E0D0E0E5CFDF91CF91B3
S11302201F910F910895CF93DF93EC01C09A0E9420
S11302304400C098CE010E944400DF91CF910895FC
S1130240CF93DF93CDB7DEB761970FB6F894DEBFD7
S11302500FBECDBF0E9475000E944100BB24B39421
S11302600F2EF0E6CF2EF0E0DF2EF02DCE0101961A
S11302707C010E94EC008C0160E080E00E949D0003
S11302800130110591F41F92BF92DF92CF92FF9239
S1130290EF920E94CE01C7010E94B1000F900F900F
S11302A00F900F900F900F90E4CF0230110529F4B6
S11302B088EC90E00E941301DCCF0330110529F48F
S11302C08CE291E00E941301D4CF0430110529F48B
S11302D084E690E00E941301CCCF0530110529F487
S11302E080E991E00E941301C4CF0630110529F47E
S11302F084EF91E00E941301BCCF0730110529F46B
S113030088E592E00E941301B4CF0830110529F466
S113031084E690E00E941301ACCF0930110529F462
S11303208CEB92E00E941301A4CF0A30110529F44A
S113033080E293E00E9413019CCF0B30110529F455
S113034084E893E00E94130194CF0C30110529F442
S113035084E690E00E9413018CCF0D30110529F43E
S113036088EC90E00E94130184CF0E30110529F42B
S113037088EE93E00E9413017CCF0F30110529F41D
S113038088EC90E00E94130174CF0031110509F04C
S113039070CF80E991E00E9413016BCFAEE0B0E032
S11303A0E4EDF1E00C948F040D891E8986E08C83C2
S11303B01A8309838FEF9FE79E838D83AE01475E87
S11303C05F4F6F89788DCE0101960E94F001EF8115
S11303D0F885E00FF11F10822E96E4E00C94AB0434
S11303E0ABE0B0E0E6EFF1E00C9481046C017B013A
S11303F08A01FC0117821682838181FFCCC1CE0160
S113040001963C01F6019381F70193FD859193FFD9
S113041081917F01882309F4BAC1853239F493FDAF
S1130420859193FF81917F01853229F4B60190E093
S11304300E94E703E7CF912C212C312CFFE1F31527
S1130440D8F08B3279F038F4803279F08332A1F429
S1130450232D20611DC08D3261F0803369F4232D7A
S1130460216016C0832D8260382EE32DE4603E2E79
S11304702AC0F32DF8601DC037FC2DC020ED280FD5
S11304802A3040F08E32B9F436FC81C1232D206429
S1130490322E19C036FE06C08AE0989E200D112423
S11304A0922E11C0EAE02E9E200D1124222EF32D4F
S11304B0F0623F2E08C08C3621F4832D8068382EDC
S11304C002C0883641F4F70193FD859193FF819131
S11304D07F018111B3CF982F9F7D9554933028F4D9
S11304E00C5F1F4F9FE399830DC0833631F0833730
S11304F071F0833509F059C021C0F80180818983E6
S11305000E5F1F4F88248394912C530113C028013C
S1130510F2E04F0E511CF801A080B18036FE03C0FA
S1130520692D70E002C06FEF7FEFC5010E94DC030C
S11305304C018201F32DFF773F2E16C0280122E0E3
S1130540420E511CF801A080B18036FE03C0692D13
S113055070E002C06FEF7FEFC5010E94D1034C0130
S1130560F32DF0683F2E820133FC1BC0822D90E0F6
S113057088169906B0F4B60180E290E00E94E70381
S11305802A94F4CFF50137FC859137FE81915F0100
S1130590B60190E00E94E70321102A9421E0821A18
S11305A091088114910471F7E8C0843611F08936FA
S11305B041F5F80137FE07C0608171818281938122
S11305C00C5F1F4F08C060817181072E000C880BDF
S11305D0990B0E5F1F4FF32DFF763F2E97FF09C037
S11305E090958095709561957F4F8F4F9F4FF068E0
S11305F03F2E2AE030E0A3010E942304882E8618AF
S113060045C0853731F4232D2F7EB22E2AE030E009
S113061025C0932D997FB92E8F36C1F018F48835F3
S113062079F0B5C0803719F0883721F0B0C0E92FD0
S1130630E061BE2EB4FE0DC0FB2DF460BF2E09C0D8
S113064034FE0AC0292F2660B22E06C028E030E00E
S113065005C020E130E002C020E132E0F801B7FE3D
S113066007C060817181828193810C5F1F4F06C036
S11306706081718180E090E00E5F1F4FA3010E94B2
S11306802304882E8618FB2DFF773F2E36FE0DC0DF
S1130690232D2E7FA22E891458F434FE0BC032FC75
S11306A009C0832D8E7EA82E05C0B82CA32C03C0B0
S11306B0B82C01C0B92CA4FE0FC0FE01E80DF11D39
S11306C08081803321F49A2D997EA92E09C0A2FE3F
S11306D006C0B394B39404C08A2D867809F0B39409
S11306E0A3FC11C0A0FE06C0B21488F4280C922CFE
S11306F09B180EC0B21460F4B60180E290E00E9430
S1130700E703B394F7CFB21418F42B1802C0982C53
S1130710212CA4FE10C0B60180E390E00E94E70300
S1130720A2FE17C0A1FC03C088E790E002C088E5E0
S113073090E0B6010CC08A2D867859F0A1FE02C063
S11307408BE201C080E2A7FC8DE2B60190E00E943A
S1130750E703891438F4B60180E390E00E94E703CC
S11307609A94F7CF8A94F301E80DF11D8081B601C4
S113077090E00E94E7038110F5CF222009F442CED5
S1130780B60180E290E00E94E7032A94F6CFF601D6
S11307908681978102C08FEF9FEF2B96E2E10C9444
S11307A09D04FC010590615070400110D8F78095BC
S11307B090958E0F9F1F0895FC0161507040019029
S11307C00110D8F7809590958E0F9F1F08950F9371
S11307D01F93CF93DF93FB01238121FD03C08FEF90
S11307E09FEF2CC022FF16C046815781248135819A
S11307F04217530744F4A081B1819D012F5F3F4FFD
S1130800318320838C93268137812F5F3F4F378339
S1130810268314C08B01EC01FB010084F185E02DDB
S11308200995892BE1F6D80116968D919C9117971D
S1130830019617969C938E931697CE01DF91CF91D4
S11308401F910F910895FA01AA27283051F1203100
S113085081F1E8946F936E7F6E5F7F4F8F4F9F4F50
S1130860AF4FB1E03ED0B4E03CD0670F781F891F92
S11308709A1FA11D680F791F8A1F911DA11D6A0F60
S1130880711D811D911DA11D20D009F468943F9113
S11308902AE0269F11243019305D3193DEF6CF0112
S11308A00895462F4770405D4193B3E00FD0C9F7D8
S11308B0F6CF462F4F70405D4A3318F0495D31FD45
S11308C04052419302D0A9F7EACFB4E0A695979598
S11308D0879577956795BA95C9F70097610571056E
S11308E008959B01AC010A2E0694579547953795B8
S11308F02795BA95C9F7620F731F841F951FA01D12
S113090008952F923F924F925F926F927F928F92AF
S11309109F92AF92BF92CF92DF92EF92FF920F938A
S11309201F93CF93DF93CDB7DEB7CA1BDB0B0FB694
S1130930F894DEBF0FBECDBF09942A883988488851
S11309405F846E847D848C849B84AA84B984C884E7
S1130950DF80EE80FD800C811B81AA81B981CE0FDE
S1130960D11D0FB6F894DEBF0FBECDBFED010895C3
S1070970F894FFCF25
S109097425303269000089
S9030000FC
